:1000000035C100004EC100004CC100004AC10000D3
:1000100048C1000046C1000044C1000042C10000C8
:1000200040C100003EC10000A9C3000003C400009D
:1000300038C1000036C1000034C1000032C10000E8
:1000400030C100002EC100002CC100002AC10000F8
:1000500028C1000026C1000024C1000022C1000008
:1000600020C100001EC100001CC100001AC1000018
:1000700018C1000016C1000014C1000012C1000028
:1000800010C100000EC100000CC100000AC1000038
:1000900008C1000006C1000004C1000002C1000048
:1000A00000C10000FEC00000FCC000009A029A02DD
:1000B0009A029A029A029A029A029A029A029A0260
:1000C0009A029A0224029302A302A3023F0246026A
:1000D00054024D0283026802010210027F0285026F
:1000E000870289028B028F028D02910200000000BC
:1000F000000000000000000000000A02EC0AF26CA0
:100100000102F705F26C00000000000000002A2B3D
:1001100028000000000000000000000000000000B7
:100120000000000000002C9EB4A0A1A2A434A6A749
:10013000A5AE362D3738271E1F2021222324252641
:10014000B333B62EB7B89F8485868788898A8B8C0F
:100150008D8E8F909192939495969798999A9B9C57
:100160009D2F3130A3AD350405060708090A0B0C95
:100170000D0E0F101112131415161718191A1B1C37
:100180001DAFB1B0B5000001000054021200020022
:1001900000F301220022000015023F0021000005AB
:1001A000020900030000EF010401030904DD01104E
:1001B00002030904B70124240355006C0074007283
:1001C0000061004E006100760020004B0065007960
:1001D0000062006F00610072006400000010034CB8
:1001E000004900540045002D004F004E000000045F
:1001F00003090409022200010100C03209040000C1
:100200000103010100092111010001223F0007053E
:10021000830308000105010906A101750195080580
:100220000719E029E715002501810295017508816C
:1002300003950575010508190129059102950175B8
:10024000039103950675081500256805071900290F
:10025000688100C01201000200000020B3041830C1
:10026000000101020001000001C1060011241FBEAF
:10027000CFEFDAE0DEBFCDBF11E0A0E0B1E0E2ED0C
:10028000FCE002C005900D92A632B107D9F721E03B
:10029000A6E2B1E001C01D92A233B207E1F702D09D
:1002A00016C5AECE80E880936100109261006E9A10
:1002B000259A6A9876982D9880E090E095D4C82F7A
:1002C0002FEF89E698E1215080409040E1F700C08F
:1002D0000000629958C060E080E090E08DD4769A8A
:1002E000EFEFF1EE24E0E150F0402040E1F700C0F4
:1002F000000076988FEF91EEE4E081509040E0406E
:10030000E1F700C00000769AFFEF21EE84E0F150A3
:1003100020408040E1F700C0000076989FEFE1EEBA
:10032000F4E09150E040F040E1F700C000002FEF12
:1003300083ED90E3215080409040E1F700C0000041
:10034000C0E06299FECF629BFECFCF30D1F0CF5F8D
:100350006C2F80E090E050D4769AEFEFF1EE24E03D
:10036000E150F0402040E1F700C0000076988FEFA8
:1003700091EEE4E081509040E040E1F700C00000E1
:10038000E0CF769AFFCFFED014D18823E9F3769A96
:10039000FFEF23ED80E3F15020408040E1F700C003
:1003A00000007894EC2FF0E0EE0FFF1FEC5FFE4FA3
:1003B0000190F081E02D309709F4CAC09490B12CDF
:1003C0006F0192E0C90ED11C7F012FEFE21AF20AF1
:1003D0009B1409F4BDC09601F701A490AA2009F46A
:1003E000B5C0E9012196F9018491482F50E0FA0146
:1003F000E05EF109E032F10508F0A5C0EA5AFF4FCE
:1004000084C32E5F3F4FFE01C49180E08C17D1F072
:10041000EFE9FFE03197F1F700C000008F5FF6CF02
:100420002E5F3F4FFE01C49180E0C81759F094E65B
:10043000EFE3FCE93197F1F700C000009150C1F7FC
:100440008F5FF3CFE9017FC089010E5F1F4FFE016F
:10045000C491BCD36C2F70E045D390E0981708F09E
:1004600035C03CE324E6EFE3FCE93197F1F700C047
:1004700000002150C1F73150A9F79F5FEFCF8901EC
:100480000E5F1F4FFE01C49180E814C089010E5F0A
:100490001F4FFE01C49182E80DC089010E5F1F4FFE
:1004A000FE01C49181E806C089010E5F1F4FFE0165
:1004B000C49183E8B8D0CF3F11F08C2FB4D08FE334
:1004C0009CE90197F1F700C0000037D1E8013BC07B
:1004D00089010E5F1F4FFE01C491D02F3801862D78
:1004E0008D1B8C1738F4F301849132D1FFEF6F1A12
:1004F0007F0AF5CFC8018C0F911DEC0124C081E863
:1005000092D08BEC18C080EB0FC081EB14C081EC53
:100510000BC08AED10C089ED07C088ED0CC087EDD7
:1005200003C083EB08C086E47ED08FE39CE901978B
:10053000F1F706C08E5177D0EFE3FCE93197F1F780
:1005400000C00000FAD0AA949E0148CFB39440CFD7
:10055000769AFFEF21EE84E0F15020408040E1F7F1
:1005600000C0000076989FEFE1EEF4E09150E0408B
:10057000F040E1F700C00000EBCF8091E80080FF81
:10058000FCCF089581E08093D70080EA8093D80063
:1005900082E189BD09B400FEFDCF80E98093D800D7
:1005A0001092E000109231018CE08093E200789488
:1005B000089580913101089520913101211102C0E7
:1005C0008FEF08952FB7F89433E03093E90030911E
:1005D000E4003E5C43E05091E80055FD0EC02FBFA3
:1005E00020913101222361F32091E400321741F37D
:1005F0002FB7F8944093E900EECFFC01308130939F
:10060000F1001092F1003296089631913093F1008A
:10061000E817F907D1F78AE38093E80010922801E0
:100620002FBF80E00895883810F0885820C0E82F48
:10063000F0E087FF0FC0E058F10981E090E001C0D1
:10064000880FEA95EAF790912901892B8093290177
:1006500080E00DC0EA5FFE4F84918823A9F187FFF7
:1006600006C0909129019260909329018F77909113
:100670002B01891731F190912C01891711F190917B
:100680002D018917F1F090912E018917D1F09091E9
:100690002F018917B1F090913001891791F0EBE2A9
:1006A000F1E020E030E09191911105C0F901E75DA2
:1006B000FE4F828306C02F5F3F4F2630310599F7EA
:1006C00003C089E291E078CF8FEF0895883810F069
:1006D000885821C0E82FF0E087FF10C0E058F109EA
:1006E00081E090E001C0880FEA95EAF7809590914B
:1006F000290189238093290180E00DC0EA5FFE4F24
:1007000084918823C1F087FF06C0909129019D7FC5
:10071000909329018F77E9E2F1E096E0882321F0B8
:100720002281821301C01282915031969111F6CF2D
:1007300089E291E041CF8FEF0895E9E2F1E0128282
:10074000138214821582168217821082CF0134CF51
:10075000CF93C82F68DFEFE3FCE93197F1F700C0D2
:100760000000EFE3FCE93197F1F700C000008111D0
:1007700003C08C2FCF91AACFCF9108951F920F92D3
:100780000FB60F9211248F939F93EF93FF93809155
:10079000E1001092E10083FF0FC01092E90091E0A8
:1007A0009093EB001092EC0092E29093ED0098E0B1
:1007B0009093F0001092310182FF33C0809131019B
:1007C000882379F180912401882359F180912601B1
:1007D0008F5F80932601837021F583E08093E90089
:1007E0008091E80085FF1DC0809128018F5F809374
:1007F000280190912401891314C01092280180913E
:1008000029018093F1001092F100EBE2F1E0819177
:100810008093F10081E0E133F807C9F78AE3809320
:10082000E800FF91EF919F918F910F900FBE0F9075
:100830001F9018951F920F920FB60F921124FF92DE
:100840000F931F932F933F934F935F936F937F93D8
:100850008F939F93AF93BF93CF93DF93EF93FF93C8
:100860001092E9008091E80083FF23C1F090F1002D
:100870008091F100C091F1009091F100D0E0D92B6E
:100880000091F1009091F10010E0192B2091F100FE
:100890006091F10092EF9093E800863009F049C032
:1008A00086E891E047EB51E0FC01A591B491CA17AD
:1008B000DB07D9F4FC013296A591B4910A171B0706
:1008C000A1F4FC01349645915491FC013696849133
:1008D00030E0362B2F3F310519F010F02FEF30E0CC
:1008E000281708F4822F3EEF0CC0079648175907C7
:1008F000D9F6DFC0490F511D891B3093E8008823CA
:10090000A9F09091E800292F2570D9F392FDD4C069
:10091000982F813208F090E2FA01292F222351F317
:1009200064916093F10021503196F8CF903249F3F1
:10093000C3C0853041F48EEF8093E8001EDEC068AE
:10094000C093E300B9C0893039F5F1106AC0C09393
:1009500031018EEF8093E80041E086E692E040931B
:10096000E9009C012F5F3F4FFC0154915093EB0035
:10097000552359F0F90124912093EC009C012D5F3F
:100980003F4F3196E491E093ED004F5F453011F019
:10099000C901E5CF8EE140C0883039F4F0E8FF129C
:1009A00040C0EBDD8091310161C0811114C0E5DDF3
:1009B00082E8F8120AC00093E9008091EB0085FB01
:1009C000882780F91092E90001C080E08093F1004F
:1009D0001092F1006AC0982F9D7F913011F592E03E
:1009E000F9121FC0CD2B09F064C00F779FEF900F55
:1009F000943008F05EC09EEF9093E8000093E90009
:100A0000833009F456C089E18093EB0081E090E0E7
:100A100001C0880F0A95EAF78093EA001092EA0075
:100A20004BC0012B09F045C0E1EAFE1222C0813023
:100A300091F4A3DD809129018093F1001092F100DF
:100A4000EBE2F1E081E391E021912093F1008E1738
:100A50009F07D1F72AC0823021F48FDD80912401D5
:100A600005C0833031F589DD809125018093F10047
:100A70001CC0F1E2FF121DC0893061F48091E800D2
:100A800082FFFCCF8091F100809327018BEF809350
:100A9000E8000BC08A3029F4D09324011092280179
:100AA00004C08B3031F4C09325018EEF8093E800B1
:100AB00003C081E28093EB00FF91EF91DF91CF9132
:100AC000BF91AF919F918F917F916F915F914F9166
:100AD0003F912F911F910F91FF900F900FBE0F909C
:100AE0001F90189597FB072E16F4009406D077FDFB
:100AF00008D011D007FC05D03EF4909581959F4F0A
:100B00000895709561957F4F0895EE0FFF1F059032
:100B1000F491E02D0994AA1BBB1B51E107C0AA1F49
:100B2000BB1FA617B70710F0A61BB70B881F991F8E
:100B30005A95A9F780959095BC01CD0108958F92A3
:100B40009F92AF92BF92CF92DF92EF92FF92CF939C
:100B5000DF93EC01688179818A819B816115710540
:100B60008105910521F464E279ED8BE597E02DE1B3
:100B700033EF41E050E04ED049015A019B01AC01F6
:100B8000A7EAB1E463D06B017C01ACEEB4EFA50140
:100B9000940168D0DC01CB018C0D9D1DAE1DBF1DE5
:100BA000B7FF03C00197A109B04888839983AA833E
:100BB000BB839F77DF91CF91FF90EF90DF90CF9035
:100BC000BF90AF909F908F900895B9CF80E091E053
:100BD000B6CFA0E0B0E08093000190930101A09314
:100BE0000201B09303010895F999FECF92BD81BD32
:100BF000F89A992780B50895262FF999FECF1FBA44
:100C000092BD81BD20BD0FB6F894FA9AF99A0FBE35
:100C100001960895052E97FB16F400940FD057FD0A
:100C200005D024D007FC02D046F408C0509540956A
:100C3000309521953F4F4F4F5F4F08959095809588
:100C4000709561957F4F8F4F9F4F089531D0A59F2D
:100C5000900DB49F900DA49F800D911D11240895B7
:100C6000B7FFF4CFF3DF821B930B0895A1E21A2E96
:100C7000AA1BBB1BFD010DC0AA1FBB1FEE1FFF1F40
:100C8000A217B307E407F50720F0A21BB30BE40B90
:100C9000F50B661F771F881F991F1A9469F76095D7
:100CA0007095809590959B01AC01BD01CF01089591
:100CB000A29FB001B39FC001A39F700D811D11249D
:100CC000911DB29F700D811D1124911D0895F894FE
:020CD000FFCF54
:100CD200010000000001FA00F900F800F700F60038
:100CE200F500F400F300F200F100F000EF00EE0076
:060CF200ED00EC007D01A5
:00000001FF
